:100000000C9438000C9455000C9455000C94550039
:100010000C9455000C9447010C9455000C94550019
:100020000C9455000C94D6000C9455000C9455007B
:100030000C9455000C9455000C9455000C945500EC
:100040000C9455000C9455000C9455000C945500DC
:100050000C9455000C9455000C9455000C945500CC
:100060000C9455000C9455000C9455000C945500BC
:1000700011241FBECFEFD0E1DEBFCDBF11E0A0E065
:10008000B1E0E8E4F3E002C005900D92A230B107C0
:10009000D9F721E0A2E0B1E001C01D92A331B2077F
:1000A000E1F70E9488000C94A2010C940000E1EB9F
:1000B000F0E080818160808386EA8093B300E0EB8A
:1000C000F0E08081826080830895E0E7F0E0808145
:1000D000826080830895E0E7F0E080818D7F8083F7
:1000E00008951092B2000895ECE6F0E080818064FB
:1000F00080830895E8E6F0E080818260808308953F
:10010000E8E6F0E080818D7F808308952698089549
:10011000CF93DF9300D0CDB7DEB70F9A179A259A09
:100120000E9486000E9474000E9457008EE190E0B9
:100130000E947D0178940E947A0084E490E09A8382
:10014000898361E070E0CE0101960E94880161E040
:1001500070E0CE0101960E9488012FEF8FEF9EE0A4
:10016000215080409040E1F700C00000F0CF21E036
:1001700030E080E0F901E75FFE4F9081492F417048
:1001800050E0B90161507109FA0102C0EE0FFF1F82
:100190006A95E2F78E0F2F5F3F4F2930310551F7F7
:1001A000843419F492B1905892B908951F920F9225
:1001B0000FB60F9211242F933F934F935F936F933A
:1001C0007F938F939F93AF93BF93EF93FF93809110
:1001D0000501882309F44AC0E0910801F0E083B1E9
:1001E0008074EE5FFE4F8083809108018F5F809363
:1001F0000801809108018330C9F530910201809196
:1002000003012091040190E0830F911D820F911D45
:1002100021E003970CF420E020930701809107016F
:10022000882311F02D9A05C080910701811101C02A
:100230002D98E0910601F0E080910701E75FFE4F05
:100240008083809106018F5F8093060110920801E0
:10025000809106018A3051F40E946B0010920501D2
:10026000109206010E94B7000E947A00FF91EF9160
:10027000BF91AF919F918F917F916F915F914F91BE
:100280003F912F910F900FBE0F901F9018951F92C6
:100290000F920FB60F9211242F933F934F935F93BA
:1002A0006F937F938F939F93AF93BF93EF93FF933E
:1002B0001E990BC00E9465001092B20081E08093ED
:1002C0000501109208010E948000FF91EF91BF91FB
:1002D000AF919F918F917F916F915F914F913F91DE
:1002E0002F910F900FBE0F901F9018959091C00006
:1002F00095FFFCCF8093C60008958093C40090932F
:10030000C50086E08093C20088E18093C100089513
:10031000EF92FF920F931F93CF93DF938C017B019A
:10032000EC01CE01801B910B8E159F0524F4899161
:100330000E947601F6CFDF91CF911F910F91FF9030
:08034000EF900895F894FFCF3F
:020348000100B2
:00000001FF
