:100000000C9438000C9442000C9442000C94420072
:100010000C9442000C9442000C9442000C94420058
:100020000C9442000C9442000C9442000C94420048
:100030000C9442000C9442000C9442000C94420038
:100040000C9442000C9442000C9442000C94420028
:100050000C9442000C9442000C9442000C94420018
:100060000C9442000C9442000C9442000C94420008
:1000700011241FBECFEFD0E1DEBFCDBF0E945D00D7
:100080000C946D000C9400008093C4009093C50004
:1000900086E08093C20088E18093C100089580913A
:1000A000C00087FFFCCF8091C60008959091C000EA
:1000B00095FFFCCF8093C60008958FE090E00E94EA
:1000C00044000F9A0E944F00C82F0E945600C13072
:0E00D000C9F782B1805882B9F5CFF894FFCFFE
:00000001FF
