:100000000C9438000C9455000C9455000C94550039
:100010000C9455000C9455000C9455000C9455000C
:100020000C9455000C9455000C9455000C945500FC
:100030000C9455000C94F1000C9455000C94550050
:100040000C9455000C9455000C9455000C945500DC
:100050000C9455000C9455000C9455000C945500CC
:100060000C9455000C9455000C9455000C945500BC
:1000700011241FBECFEFD0E1DEBFCDBF11E0A0E065
:10008000B1E0E4E2F2E002C005900D92A230B107C7
:10009000D9F721E0A2E0B1E001C01D92A630B2077D
:1000A000E1F70E94E9000C9410010C940000809389
:1000B000000181E090E0909305018093040180911C
:1000C000040190910501892BD1F70895FF920F93B8
:1000D0001F93CF93DF93CDB7DEB72C970FB6F8946D
:1000E000DEBF0FBECDBF2E9A269A8C870E94DD0000
:1000F0001982FE01329620E030E08C85682F70E096
:10010000AB01022E02C0559547950A94E2F7417063
:1001100041932F5F3F4F2830310591F7082E82958C
:100120008025082E8695869580258F5F869581701F
:100130008A8781E08B878E010F5F1F4F8BE0F82E3F
:10014000F00EF80181918F010E945700F012F9CF53
:100150002C960FB6F894DEBF0FBECDBFDF91CF91C6
:100160001F910F91FF900C94E3008BE30E946600B7
:1001700082B1805882B980E90E94660082B18058BD
:1001800082B981E10E94660082B1805882B980E024
:100190000E94660082B1805882B90895E1E8F0E0DB
:1001A00080818160808381E08093890084E78093EF
:1001B00088008081886080830895EFE6F0E0808188
:1001C000826080830895EFE6F0E080818D7F8083F8
:1001D00008950F9A0E94CE007894179A0E94B50055
:1001E000FDCF1F920F920FB60F9211248F939F9302
:1001F0008091040190910501892B39F080910001D3
:10020000882311F02E9A01C02E98109205011092A9
:1002100004019F918F910F900FBE0F901F90189522
:04022000F894FFCF80
:020224000100D7
:00000001FF
